{
  "contractName": "LawyerRegistry",
  "abi": [
    {
      "inputs": [],
      "stateMutability": "nonpayable",
      "type": "constructor"
    },
    {
      "anonymous": false,
      "inputs": [
        {
          "indexed": true,
          "internalType": "address",
          "name": "lawyerAddress",
          "type": "address"
        },
        {
          "indexed": false,
          "internalType": "string",
          "name": "email",
          "type": "string"
        }
      ],
      "name": "LawyerRegistered",
      "type": "event"
    },
    {
      "anonymous": false,
      "inputs": [
        {
          "indexed": true,
          "internalType": "address",
          "name": "lawyerAddress",
          "type": "address"
        },
        {
          "indexed": false,
          "internalType": "uint8",
          "name": "newStatus",
          "type": "uint8"
        }
      ],
      "name": "StatusUpdated",
      "type": "event"
    },
    {
      "inputs": [],
      "name": "admin",
      "outputs": [
        {
          "internalType": "address",
          "name": "",
          "type": "address"
        }
      ],
      "stateMutability": "view",
      "type": "function",
      "constant": true
    },
    {
      "inputs": [
        {
          "internalType": "uint256",
          "name": "",
          "type": "uint256"
        }
      ],
      "name": "lawyerAddresses",
      "outputs": [
        {
          "internalType": "address",
          "name": "",
          "type": "address"
        }
      ],
      "stateMutability": "view",
      "type": "function",
      "constant": true
    },
    {
      "inputs": [
        {
          "internalType": "address",
          "name": "",
          "type": "address"
        }
      ],
      "name": "lawyers",
      "outputs": [
        {
          "internalType": "string",
          "name": "fullName",
          "type": "string"
        },
        {
          "internalType": "string",
          "name": "email",
          "type": "string"
        },
        {
          "internalType": "string",
          "name": "mobileNumber",
          "type": "string"
        },
        {
          "internalType": "string",
          "name": "certificatePath",
          "type": "string"
        },
        {
          "internalType": "string",
          "name": "specialization",
          "type": "string"
        },
        {
          "internalType": "string",
          "name": "experience",
          "type": "string"
        },
        {
          "internalType": "string",
          "name": "courtType",
          "type": "string"
        },
        {
          "internalType": "uint8",
          "name": "status",
          "type": "uint8"
        }
      ],
      "stateMutability": "view",
      "type": "function",
      "constant": true
    },
    {
      "inputs": [
        {
          "internalType": "string",
          "name": "_fullName",
          "type": "string"
        },
        {
          "internalType": "string",
          "name": "_email",
          "type": "string"
        },
        {
          "internalType": "string",
          "name": "_mobileNumber",
          "type": "string"
        },
        {
          "internalType": "string",
          "name": "_certificatePath",
          "type": "string"
        },
        {
          "internalType": "string",
          "name": "_specialization",
          "type": "string"
        },
        {
          "internalType": "string",
          "name": "_experience",
          "type": "string"
        },
        {
          "internalType": "string",
          "name": "_courtType",
          "type": "string"
        }
      ],
      "name": "registerLawyer",
      "outputs": [],
      "stateMutability": "nonpayable",
      "type": "function"
    },
    {
      "inputs": [
        {
          "internalType": "address",
          "name": "lawyerAddress",
          "type": "address"
        },
        {
          "internalType": "uint8",
          "name": "newStatus",
          "type": "uint8"
        }
      ],
      "name": "updateLawyerStatus",
      "outputs": [],
      "stateMutability": "nonpayable",
      "type": "function"
    },
    {
      "inputs": [
        {
          "internalType": "address",
          "name": "lawyerAddress",
          "type": "address"
        }
      ],
      "name": "getLawyer",
      "outputs": [
        {
          "internalType": "string",
          "name": "fullName",
          "type": "string"
        },
        {
          "internalType": "string",
          "name": "email",
          "type": "string"
        },
        {
          "internalType": "string",
          "name": "mobileNumber",
          "type": "string"
        },
        {
          "internalType": "string",
          "name": "certificatePath",
          "type": "string"
        },
        {
          "internalType": "string",
          "name": "specialization",
          "type": "string"
        },
        {
          "internalType": "string",
          "name": "experience",
          "type": "string"
        },
        {
          "internalType": "string",
          "name": "courtType",
          "type": "string"
        },
        {
          "internalType": "uint8",
          "name": "status",
          "type": "uint8"
        }
      ],
      "stateMutability": "view",
      "type": "function",
      "constant": true
    },
    {
      "inputs": [],
      "name": "getAllLawyers",
      "outputs": [
        {
          "internalType": "address[]",
          "name": "",
          "type": "address[]"
        }
      ],
      "stateMutability": "view",
      "type": "function",
      "constant": true
    }
  ],
  "bytecode": "0x608060405234801561001057600080fd5b5033600260006101000a81548173ffffffffffffffffffffffffffffffffffffffff021916908373ffffffffffffffffffffffffffffffffffffffff1602179055506118b0806100616000396000f3fe608060405234801561001057600080fd5b506004361061007d5760003560e01c8063698edc761161005b578063698edc76146101055780639249d8651461013c578063c3e91f4f1461015a578063f851a440146101765761007d565b806328230e5214610082578063554ae567146100b257806363c60e63146100e9575b600080fd5b61009c6004803603810190610097919061127f565b610194565b6040516100a991906114aa565b60405180910390f35b6100cc60048036038101906100c791906110d4565b6101d3565b6040516100e0989796959493929190611509565b60405180910390f35b61010360048036038101906100fe91906110fd565b6105e0565b005b61011f600480360381019061011a91906110d4565b610770565b604051610133989796959493929190611509565b60405180910390f35b610144610c29565b60405161015191906114c5565b60405180910390f35b610174600480360381019061016f9190611139565b610cb7565b005b61017e610f64565b60405161018b91906114aa565b60405180910390f35b600181815481106101a457600080fd5b906000526020600020016000915054906101000a900473ffffffffffffffffffffffffffffffffffffffff1681565b60006020528060005260406000206000915090508060000180546101f690611794565b80601f016020809104026020016040519081016040528092919081815260200182805461022290611794565b801561026f5780601f106102445761010080835404028352916020019161026f565b820191906000526020600020905b81548152906001019060200180831161025257829003601f168201915b50505050509080600101805461028490611794565b80601f01602080910402602001604051908101604052809291908181526020018280546102b090611794565b80156102fd5780601f106102d2576101008083540402835291602001916102fd565b820191906000526020600020905b8154815290600101906020018083116102e057829003601f168201915b50505050509080600201805461031290611794565b80601f016020809104026020016040519081016040528092919081815260200182805461033e90611794565b801561038b5780601f106103605761010080835404028352916020019161038b565b820191906000526020600020905b81548152906001019060200180831161036e57829003601f168201915b5050505050908060030180546103a090611794565b80601f01602080910402602001604051908101604052809291908181526020018280546103cc90611794565b80156104195780601f106103ee57610100808354040283529160200191610419565b820191906000526020600020905b8154815290600101906020018083116103fc57829003601f168201915b50505050509080600401805461042e90611794565b80601f016020809104026020016040519081016040528092919081815260200182805461045a90611794565b80156104a75780601f1061047c576101008083540402835291602001916104a7565b820191906000526020600020905b81548152906001019060200180831161048a57829003601f168201915b5050505050908060050180546104bc90611794565b80601f01602080910402602001604051908101604052809291908181526020018280546104e890611794565b80156105355780601f1061050a57610100808354040283529160200191610535565b820191906000526020600020905b81548152906001019060200180831161051857829003601f168201915b50505050509080600601805461054a90611794565b80601f016020809104026020016040519081016040528092919081815260200182805461057690611794565b80156105c35780601f10610598576101008083540402835291602001916105c3565b820191906000526020600020905b8154815290600101906020018083116105a657829003601f168201915b5050505050908060070160009054906101000a900460ff16905088565b600260009054906101000a900473ffffffffffffffffffffffffffffffffffffffff1673ffffffffffffffffffffffffffffffffffffffff163373ffffffffffffffffffffffffffffffffffffffff1614610670576040517f08c379a000000000000000000000000000000000000000000000000000000000815260040161066790611618565b60405180910390fd5b60018160ff161480610685575060028160ff16145b6106c4576040517f08c379a00000000000000000000000000000000000000000000000000000000081526004016106bb906115d8565b60405180910390fd5b806000808473ffffffffffffffffffffffffffffffffffffffff1673ffffffffffffffffffffffffffffffffffffffff16815260200190815260200160002060070160006101000a81548160ff021916908360ff1602179055508173ffffffffffffffffffffffffffffffffffffffff167fa7cc6673952dd2140cd171b21cdf21825b0f34e690500ecf38ed0aeb006f356e826040516107649190611638565b60405180910390a25050565b60608060608060608060606000806000808b73ffffffffffffffffffffffffffffffffffffffff1673ffffffffffffffffffffffffffffffffffffffff168152602001908152602001600020604051806101000160405290816000820180546107d890611794565b80601f016020809104026020016040519081016040528092919081815260200182805461080490611794565b80156108515780601f1061082657610100808354040283529160200191610851565b820191906000526020600020905b81548152906001019060200180831161083457829003601f168201915b5050505050815260200160018201805461086a90611794565b80601f016020809104026020016040519081016040528092919081815260200182805461089690611794565b80156108e35780601f106108b8576101008083540402835291602001916108e3565b820191906000526020600020905b8154815290600101906020018083116108c657829003601f168201915b505050505081526020016002820180546108fc90611794565b80601f016020809104026020016040519081016040528092919081815260200182805461092890611794565b80156109755780601f1061094a57610100808354040283529160200191610975565b820191906000526020600020905b81548152906001019060200180831161095857829003601f168201915b5050505050815260200160038201805461098e90611794565b80601f01602080910402602001604051908101604052809291908181526020018280546109ba90611794565b8015610a075780601f106109dc57610100808354040283529160200191610a07565b820191906000526020600020905b8154815290600101906020018083116109ea57829003601f168201915b50505050508152602001600482018054610a2090611794565b80601f0160208091040260200160405190810160405280929190818152602001828054610a4c90611794565b8015610a995780601f10610a6e57610100808354040283529160200191610a99565b820191906000526020600020905b815481529060010190602001808311610a7c57829003601f168201915b50505050508152602001600582018054610ab290611794565b80601f0160208091040260200160405190810160405280929190818152602001828054610ade90611794565b8015610b2b5780601f10610b0057610100808354040283529160200191610b2b565b820191906000526020600020905b815481529060010190602001808311610b0e57829003601f168201915b50505050508152602001600682018054610b4490611794565b80601f0160208091040260200160405190810160405280929190818152602001828054610b7090611794565b8015610bbd5780601f10610b9257610100808354040283529160200191610bbd565b820191906000526020600020905b815481529060010190602001808311610ba057829003601f168201915b505050505081526020016007820160009054906101000a900460ff1660ff1660ff16815250509050806000015181602001518260400151836060015184608001518560a001518660c001518760e001519850985098509850985098509850985050919395975091939597565b60606001805480602002602001604051908101604052809291908181526020018280548015610cad57602002820191906000526020600020905b8160009054906101000a900473ffffffffffffffffffffffffffffffffffffffff1673ffffffffffffffffffffffffffffffffffffffff1681526020019060010190808311610c63575b5050505050905090565b6000875111610cfb576040517f08c379a0000000000000000000000000000000000000000000000000000000008152600401610cf2906115b8565b60405180910390fd5b6000865111610d3f576040517f08c379a0000000000000000000000000000000000000000000000000000000008152600401610d36906115f8565b60405180910390fd5b604051806101000160405280888152602001878152602001868152602001858152602001848152602001838152602001828152602001600060ff168152506000803373ffffffffffffffffffffffffffffffffffffffff1673ffffffffffffffffffffffffffffffffffffffff1681526020019081526020016000206000820151816000019080519060200190610dd7929190610f8a565b506020820151816001019080519060200190610df4929190610f8a565b506040820151816002019080519060200190610e11929190610f8a565b506060820151816003019080519060200190610e2e929190610f8a565b506080820151816004019080519060200190610e4b929190610f8a565b5060a0820151816005019080519060200190610e68929190610f8a565b5060c0820151816006019080519060200190610e85929190610f8a565b5060e08201518160070160006101000a81548160ff021916908360ff1602179055509050506001339080600181540180825580915050600190039060005260206000200160009091909190916101000a81548173ffffffffffffffffffffffffffffffffffffffff021916908373ffffffffffffffffffffffffffffffffffffffff1602179055503373ffffffffffffffffffffffffffffffffffffffff167f12d82432ab47e53ea7084164a244207c664b72dd34d109d2133918d799e47dfc87604051610f5391906114e7565b60405180910390a250505050505050565b600260009054906101000a900473ffffffffffffffffffffffffffffffffffffffff1681565b828054610f9690611794565b90600052602060002090601f016020900481019282610fb85760008555610fff565b82601f10610fd157805160ff1916838001178555610fff565b82800160010185558215610fff579182015b82811115610ffe578251825591602001919060010190610fe3565b5b50905061100c9190611010565b5090565b5b80821115611029576000816000905550600101611011565b5090565b600061104061103b84611684565b611653565b90508281526020810184848401111561105857600080fd5b611063848285611752565b509392505050565b60008135905061107a81611835565b92915050565b600082601f83011261109157600080fd5b81356110a184826020860161102d565b91505092915050565b6000813590506110b98161184c565b92915050565b6000813590506110ce81611863565b92915050565b6000602082840312156110e657600080fd5b60006110f48482850161106b565b91505092915050565b6000806040838503121561111057600080fd5b600061111e8582860161106b565b925050602061112f858286016110bf565b9150509250929050565b600080600080600080600060e0888a03121561115457600080fd5b600088013567ffffffffffffffff81111561116e57600080fd5b61117a8a828b01611080565b975050602088013567ffffffffffffffff81111561119757600080fd5b6111a38a828b01611080565b965050604088013567ffffffffffffffff8111156111c057600080fd5b6111cc8a828b01611080565b955050606088013567ffffffffffffffff8111156111e957600080fd5b6111f58a828b01611080565b945050608088013567ffffffffffffffff81111561121257600080fd5b61121e8a828b01611080565b93505060a088013567ffffffffffffffff81111561123b57600080fd5b6112478a828b01611080565b92505060c088013567ffffffffffffffff81111561126457600080fd5b6112708a828b01611080565b91505092959891949750929550565b60006020828403121561129157600080fd5b600061129f848285016110aa565b91505092915050565b60006112b483836112c0565b60208301905092915050565b6112c981611709565b82525050565b6112d881611709565b82525050565b60006112e9826116c4565b6112f381856116e7565b93506112fe836116b4565b8060005b8381101561132f57815161131688826112a8565b9750611321836116da565b925050600181019050611302565b5085935050505092915050565b6000611347826116cf565b61135181856116f8565b9350611361818560208601611761565b61136a81611824565b840191505092915050565b60006113826014836116f8565b91507f4e616d652063616e6e6f7420626520656d7074790000000000000000000000006000830152602082019050919050565b60006113c2600e836116f8565b91507f496e76616c6964207374617475730000000000000000000000000000000000006000830152602082019050919050565b60006114026015836116f8565b91507f456d61696c2063616e6e6f7420626520656d70747900000000000000000000006000830152602082019050919050565b60006114426022836116f8565b91507f4f6e6c792061646d696e2063616e20706572666f726d2074686973206163746960008301527f6f6e0000000000000000000000000000000000000000000000000000000000006020830152604082019050919050565b6114a481611745565b82525050565b60006020820190506114bf60008301846112cf565b92915050565b600060208201905081810360008301526114df81846112de565b905092915050565b60006020820190508181036000830152611501818461133c565b905092915050565b6000610100820190508181036000830152611524818b61133c565b90508181036020830152611538818a61133c565b9050818103604083015261154c818961133c565b90508181036060830152611560818861133c565b90508181036080830152611574818761133c565b905081810360a0830152611588818661133c565b905081810360c083015261159c818561133c565b90506115ab60e083018461149b565b9998505050505050505050565b600060208201905081810360008301526115d181611375565b9050919050565b600060208201905081810360008301526115f1816113b5565b9050919050565b60006020820190508181036000830152611611816113f5565b9050919050565b6000602082019050818103600083015261163181611435565b9050919050565b600060208201905061164d600083018461149b565b92915050565b6000604051905081810181811067ffffffffffffffff8211171561167a576116796117f5565b5b8060405250919050565b600067ffffffffffffffff82111561169f5761169e6117f5565b5b601f19601f8301169050602081019050919050565b6000819050602082019050919050565b600081519050919050565b600081519050919050565b6000602082019050919050565b600082825260208201905092915050565b600082825260208201905092915050565b60006117148261171b565b9050919050565b600073ffffffffffffffffffffffffffffffffffffffff82169050919050565b6000819050919050565b600060ff82169050919050565b82818337600083830152505050565b60005b8381101561177f578082015181840152602081019050611764565b8381111561178e576000848401525b50505050565b600060028204905060018216806117ac57607f821691505b602082108114156117c0576117bf6117c6565b5b50919050565b7f4e487b7100000000000000000000000000000000000000000000000000000000600052602260045260246000fd5b7f4e487b7100000000000000000000000000000000000000000000000000000000600052604160045260246000fd5b6000601f19601f8301169050919050565b61183e81611709565b811461184957600080fd5b50565b6118558161173b565b811461186057600080fd5b50565b61186c81611745565b811461187757600080fd5b5056fea2646970667358221220d33b34a9cc19c2362499cb09d2eef5672ecf4d3d27f557edb22504dd3b53c14c64736f6c63430008000033",
  "immutableReferences": {},
  "source": "// SPDX-License-Identifier: MIT\r\npragma solidity ^0.8.0;\r\n\r\ncontract LawyerRegistry {\r\n    struct Lawyer {\r\n        string fullName;\r\n        string email;\r\n        string mobileNumber;\r\n        string certificatePath;\r\n        string specialization;\r\n        string experience;  // Changed to string to handle it as text\r\n        string courtType;\r\n        uint8 status;      // 0: pending, 1: accepted, 2: rejected\r\n    }\r\n\r\n    mapping(address => Lawyer) public lawyers;\r\n    address[] public lawyerAddresses;\r\n    address public admin;\r\n\r\n    event LawyerRegistered(address indexed lawyerAddress, string email);\r\n    event StatusUpdated(address indexed lawyerAddress, uint8 newStatus);\r\n\r\n    constructor() {\r\n        admin = msg.sender;\r\n    }\r\n\r\n    modifier onlyAdmin() {\r\n        require(msg.sender == admin, \"Only admin can perform this action\");\r\n        _;\r\n    }\r\n\r\n    function registerLawyer(\r\n        string memory _fullName,\r\n        string memory _email,\r\n        string memory _mobileNumber,\r\n        string memory _certificatePath,\r\n        string memory _specialization,\r\n        string memory _experience,\r\n        string memory _courtType\r\n    ) public {\r\n        require(bytes(_fullName).length > 0, \"Name cannot be empty\");\r\n        require(bytes(_email).length > 0, \"Email cannot be empty\");\r\n        \r\n        lawyers[msg.sender] = Lawyer({\r\n            fullName: _fullName,\r\n            email: _email,\r\n            mobileNumber: _mobileNumber,\r\n            certificatePath: _certificatePath,\r\n            specialization: _specialization,\r\n            experience: _experience,\r\n            courtType: _courtType,\r\n            status: 0\r\n        });\r\n        \r\n        lawyerAddresses.push(msg.sender);\r\n        emit LawyerRegistered(msg.sender, _email);\r\n    }\r\n\r\n    function updateLawyerStatus(address lawyerAddress, uint8 newStatus) public onlyAdmin {\r\n        require(newStatus == 1 || newStatus == 2, \"Invalid status\");\r\n        lawyers[lawyerAddress].status = newStatus;\r\n        emit StatusUpdated(lawyerAddress, newStatus);\r\n    }\r\n\r\n    function getLawyer(address lawyerAddress) public view returns (\r\n        string memory fullName,\r\n        string memory email,\r\n        string memory mobileNumber,\r\n        string memory certificatePath,\r\n        string memory specialization,\r\n        string memory experience,\r\n        string memory courtType,\r\n        uint8 status\r\n    ) {\r\n        Lawyer memory lawyer = lawyers[lawyerAddress];\r\n        return (\r\n            lawyer.fullName,\r\n            lawyer.email,\r\n            lawyer.mobileNumber,\r\n            lawyer.certificatePath,\r\n            lawyer.specialization,\r\n            lawyer.experience,\r\n            lawyer.courtType,\r\n            lawyer.status\r\n        );\r\n    }\r\n\r\n    function getAllLawyers() public view returns (address[] memory) {\r\n        return lawyerAddresses;\r\n    }\r\n} ",
  "sourcePath": "D:\\bits-projects\\juditiary-project\\contracts\\LawyerRegistry.sol",
  "compiler": {
    "name": "solc",
    "version": "0.8.0+commit.c7dfd78e.Emscripten.clang"
  },
  "schemaVersion": "3.4.16",
  "updatedAt": "2025-03-13T12:12:29.815Z",
  "networkType": "ethereum",
  "devdoc": {
    "kind": "dev",
    "methods": {},
    "version": 1
  },
  "userdoc": {
    "kind": "user",
    "methods": {},
    "version": 1
  }
}